{
  "_format": "hh-sol-artifact-1",
  "contractName": "ProductRegistry",
  "sourceName": "contracts/ProductRegistry.sol",
  "abi": [
    {
      "anonymous": false,
      "inputs": [
        {
          "indexed": false,
          "internalType": "string",
          "name": "productId",
          "type": "string"
        },
        {
          "indexed": false,
          "internalType": "string",
          "name": "newName",
          "type": "string"
        }
      ],
      "name": "ManufacturerNameUpdated",
      "type": "event"
    },
    {
      "anonymous": false,
      "inputs": [
        {
          "indexed": false,
          "internalType": "string",
          "name": "productId",
          "type": "string"
        },
        {
          "indexed": false,
          "internalType": "address",
          "name": "owner",
          "type": "address"
        },
        {
          "indexed": false,
          "internalType": "uint256",
          "name": "timestamp",
          "type": "uint256"
        }
      ],
      "name": "ProductClaimed",
      "type": "event"
    },
    {
      "anonymous": false,
      "inputs": [
        {
          "indexed": false,
          "internalType": "string",
          "name": "productId",
          "type": "string"
        },
        {
          "indexed": false,
          "internalType": "string",
          "name": "batchNumber",
          "type": "string"
        },
        {
          "indexed": false,
          "internalType": "address",
          "name": "manufacturer",
          "type": "address"
        },
        {
          "indexed": false,
          "internalType": "uint256",
          "name": "timestamp",
          "type": "uint256"
        }
      ],
      "name": "ProductRegistered",
      "type": "event"
    },
    {
      "inputs": [
        {
          "internalType": "string",
          "name": "",
          "type": "string"
        },
        {
          "internalType": "uint256",
          "name": "",
          "type": "uint256"
        }
      ],
      "name": "batchProducts",
      "outputs": [
        {
          "internalType": "string",
          "name": "",
          "type": "string"
        }
      ],
      "stateMutability": "view",
      "type": "function"
    },
    {
      "inputs": [
        {
          "internalType": "string",
          "name": "productId",
          "type": "string"
        },
        {
          "internalType": "string",
          "name": "ownerName",
          "type": "string"
        }
      ],
      "name": "claimProduct",
      "outputs": [],
      "stateMutability": "nonpayable",
      "type": "function"
    },
    {
      "inputs": [
        {
          "internalType": "address",
          "name": "manufacturer",
          "type": "address"
        }
      ],
      "name": "getManufacturerProducts",
      "outputs": [
        {
          "internalType": "string[]",
          "name": "",
          "type": "string[]"
        }
      ],
      "stateMutability": "view",
      "type": "function"
    },
    {
      "inputs": [
        {
          "internalType": "address",
          "name": "owner",
          "type": "address"
        }
      ],
      "name": "getOwnerProducts",
      "outputs": [
        {
          "internalType": "string[]",
          "name": "",
          "type": "string[]"
        }
      ],
      "stateMutability": "view",
      "type": "function"
    },
    {
      "inputs": [
        {
          "internalType": "string",
          "name": "productId",
          "type": "string"
        }
      ],
      "name": "getProductBatch",
      "outputs": [
        {
          "internalType": "string",
          "name": "",
          "type": "string"
        }
      ],
      "stateMutability": "view",
      "type": "function"
    },
    {
      "inputs": [
        {
          "internalType": "string",
          "name": "batchNumber",
          "type": "string"
        }
      ],
      "name": "getProductsByBatch",
      "outputs": [
        {
          "internalType": "string[]",
          "name": "",
          "type": "string[]"
        }
      ],
      "stateMutability": "view",
      "type": "function"
    },
    {
      "inputs": [
        {
          "internalType": "string",
          "name": "productId",
          "type": "string"
        }
      ],
      "name": "getRegistrationDate",
      "outputs": [
        {
          "internalType": "string",
          "name": "",
          "type": "string"
        }
      ],
      "stateMutability": "view",
      "type": "function"
    },
    {
      "inputs": [
        {
          "internalType": "string",
          "name": "productId",
          "type": "string"
        }
      ],
      "name": "getRegistrationTimestamp",
      "outputs": [
        {
          "internalType": "uint256",
          "name": "",
          "type": "uint256"
        }
      ],
      "stateMutability": "view",
      "type": "function"
    },
    {
      "inputs": [
        {
          "internalType": "string",
          "name": "productId",
          "type": "string"
        }
      ],
      "name": "isProductRegistered",
      "outputs": [
        {
          "internalType": "bool",
          "name": "",
          "type": "bool"
        }
      ],
      "stateMutability": "view",
      "type": "function"
    },
    {
      "inputs": [
        {
          "internalType": "address",
          "name": "",
          "type": "address"
        },
        {
          "internalType": "uint256",
          "name": "",
          "type": "uint256"
        }
      ],
      "name": "manufacturerProducts",
      "outputs": [
        {
          "internalType": "string",
          "name": "",
          "type": "string"
        }
      ],
      "stateMutability": "view",
      "type": "function"
    },
    {
      "inputs": [
        {
          "internalType": "address",
          "name": "",
          "type": "address"
        },
        {
          "internalType": "uint256",
          "name": "",
          "type": "uint256"
        }
      ],
      "name": "ownerProducts",
      "outputs": [
        {
          "internalType": "string",
          "name": "",
          "type": "string"
        }
      ],
      "stateMutability": "view",
      "type": "function"
    },
    {
      "inputs": [
        {
          "internalType": "string",
          "name": "",
          "type": "string"
        }
      ],
      "name": "products",
      "outputs": [
        {
          "internalType": "string",
          "name": "name",
          "type": "string"
        },
        {
          "internalType": "string",
          "name": "batchNumber",
          "type": "string"
        },
        {
          "internalType": "address",
          "name": "manufacturer",
          "type": "address"
        },
        {
          "internalType": "string",
          "name": "manufacturerName",
          "type": "string"
        },
        {
          "internalType": "address",
          "name": "owner",
          "type": "address"
        },
        {
          "internalType": "string",
          "name": "ownerName",
          "type": "string"
        },
        {
          "internalType": "bool",
          "name": "isRegistered",
          "type": "bool"
        },
        {
          "internalType": "bool",
          "name": "isClaimed",
          "type": "bool"
        },
        {
          "internalType": "uint256",
          "name": "registrationTimestamp",
          "type": "uint256"
        }
      ],
      "stateMutability": "view",
      "type": "function"
    },
    {
      "inputs": [
        {
          "internalType": "string",
          "name": "productId",
          "type": "string"
        },
        {
          "internalType": "string",
          "name": "name",
          "type": "string"
        },
        {
          "internalType": "string",
          "name": "batchNumber",
          "type": "string"
        },
        {
          "internalType": "string",
          "name": "manufacturerName",
          "type": "string"
        }
      ],
      "name": "registerProduct",
      "outputs": [],
      "stateMutability": "nonpayable",
      "type": "function"
    }
  ],
  "bytecode": "0x608060405234801561001057600080fd5b50611a95806100206000396000f3fe608060405234801561001057600080fd5b50600436106100cf5760003560e01c80637382e17a1161008c578063a7590f7d11610066578063a7590f7d146101c9578063a7800164146101dc578063e6d012a2146101ef578063f3e254111461021057600080fd5b80637382e17a1461018e5780638799d6fc146101a15780638bce12a3146101b657600080fd5b80630186a423146100d457806310f6fdfc146101055780631d4f0d5c146101255780631e764d45146101455780632b85064b146101685780635fe2b9ce1461017b575b600080fd5b6100e76100e2366004611323565b610223565b6040516100fc999897969594939291906113b0565b60405180910390f35b610118610113366004611323565b6104b9565b6040516100fc919061143c565b610138610133366004611472565b610536565b6040516100fc919061148d565b610158610153366004611323565b610625565b60405190151581526020016100fc565b610138610176366004611323565b610652565b6101186101893660046114f1565b61073e565b61013861019c366004611472565b6107f7565b6101b46101af36600461151b565b6108db565b005b6101186101c4366004611323565b610be5565b6101186101d73660046115c8565b610cda565b6101186101ea3660046114f1565b610d05565b6102026101fd366004611323565b610d21565b6040519081526020016100fc565b6101b461021e36600461160d565b610d8d565b805160208183018101805160008252928201919093012091528054819061024990611671565b80601f016020809104026020016040519081016040528092919081815260200182805461027590611671565b80156102c25780601f10610297576101008083540402835291602001916102c2565b820191906000526020600020905b8154815290600101906020018083116102a557829003601f168201915b5050505050908060010180546102d790611671565b80601f016020809104026020016040519081016040528092919081815260200182805461030390611671565b80156103505780601f1061032557610100808354040283529160200191610350565b820191906000526020600020905b81548152906001019060200180831161033357829003601f168201915b505050600284015460038501805494956001600160a01b0390921694919350915061037a90611671565b80601f01602080910402602001604051908101604052809291908181526020018280546103a690611671565b80156103f35780601f106103c8576101008083540402835291602001916103f3565b820191906000526020600020905b8154815290600101906020018083116103d657829003601f168201915b505050600484015460058501805494956001600160a01b0390921694919350915061041d90611671565b80601f016020809104026020016040519081016040528092919081815260200182805461044990611671565b80156104965780601f1061046b57610100808354040283529160200191610496565b820191906000526020600020905b81548152906001019060200180831161047957829003601f168201915b505050506006830154600790930154919260ff8082169361010090920416915089565b60606000826040516104cb91906116ab565b9081526040519081900360200190206006015460ff166105065760405162461bcd60e51b81526004016104fd906116c7565b60405180910390fd5b61053060008360405161051991906116ab565b908152602001604051809103902060070154610f08565b92915050565b6001600160a01b0381166000908152600260209081526040808320805482518185028101850190935280835260609492939192909184015b8282101561061a57838290600052602060002001805461058d90611671565b80601f01602080910402602001604051908101604052809291908181526020018280546105b990611671565b80156106065780601f106105db57610100808354040283529160200191610606565b820191906000526020600020905b8154815290600101906020018083116105e957829003601f168201915b50505050508152602001906001019061056e565b505050509050919050565b6000808260405161063691906116ab565b9081526040519081900360200190206006015460ff1692915050565b606060038260405161066491906116ab565b9081526020016040518091039020805480602002602001604051908101604052809291908181526020016000905b8282101561061a5783829060005260206000200180546106b190611671565b80601f01602080910402602001604051908101604052809291908181526020018280546106dd90611671565b801561072a5780601f106106ff5761010080835404028352916020019161072a565b820191906000526020600020905b81548152906001019060200180831161070d57829003601f168201915b505050505081526020019060010190610692565b6001602052816000526040600020818154811061075a57600080fd5b9060005260206000200160009150915050805461077690611671565b80601f01602080910402602001604051908101604052809291908181526020018280546107a290611671565b80156107ef5780601f106107c4576101008083540402835291602001916107ef565b820191906000526020600020905b8154815290600101906020018083116107d257829003601f168201915b505050505081565b6001600160a01b0381166000908152600160209081526040808320805482518185028101850190935280835260609492939192909184015b8282101561061a57838290600052602060002001805461084e90611671565b80601f016020809104026020016040519081016040528092919081815260200182805461087a90611671565b80156108c75780601f1061089c576101008083540402835291602001916108c7565b820191906000526020600020905b8154815290600101906020018083116108aa57829003601f168201915b50505050508152602001906001019061082f565b6000846040516108eb91906116ab565b9081526040519081900360200190206006015460ff161561094e5760405162461bcd60e51b815260206004820152601a60248201527f50726f6475637420616c7265616479207265676973746572656400000000000060448201526064016104fd565b60008151116109a95760405162461bcd60e51b815260206004820152602160248201527f4d616e756661637475726572206e616d652063616e6e6f7420626520656d70746044820152607960f81b60648201526084016104fd565b60008251116109fa5760405162461bcd60e51b815260206004820152601c60248201527f4261746368206e756d6265722063616e6e6f7420626520656d7074790000000060448201526064016104fd565b604080516101208101825284815260208082018590523382840152606082018490526000608083018190528351918201845280825260a0830191909152600160c083015260e082018190524261010083018190529251610a5b9088906116ab565b90815260405190819003602001902081518190610a789082611748565b5060208201516001820190610a8d9082611748565b5060408201516002820180546001600160a01b0319166001600160a01b0390921691909117905560608201516003820190610ac89082611748565b5060808201516004820180546001600160a01b0319166001600160a01b0390921691909117905560a08201516005820190610b039082611748565b5060c082015160068201805460e085015161ffff1990911692151561ff00191692909217610100921515830217905590910151600790910155336000908152600160208181526040832080549283018155835290912001610b648682611748565b50600383604051610b7591906116ab565b908152604051602091819003820190208054600181018255600091825291902001610ba08682611748565b507f0c0d491e345bc2978c00d63d2467e57a7b6d771cf759616a786b1d339d75f1b585843384604051610bd69493929190611808565b60405180910390a15050505050565b6060600082604051610bf791906116ab565b9081526040519081900360200190206006015460ff16610c295760405162461bcd60e51b81526004016104fd906116c7565b600082604051610c3991906116ab565b90815260200160405180910390206001018054610c5590611671565b80601f0160208091040260200160405190810160405280929190818152602001828054610c8190611671565b8015610cce5780601f10610ca357610100808354040283529160200191610cce565b820191906000526020600020905b815481529060010190602001808311610cb157829003601f168201915b50505050509050919050565b8151602081840181018051600382529282019185019190912091905280548290811061075a57600080fd5b6002602052816000526040600020818154811061075a57600080fd5b60008082604051610d3291906116ab565b9081526040519081900360200190206006015460ff16610d645760405162461bcd60e51b81526004016104fd906116c7565b600082604051610d7491906116ab565b9081526020016040518091039020600701549050919050565b600082604051610d9d91906116ab565b9081526040519081900360200190206006015460ff16610dcf5760405162461bcd60e51b81526004016104fd906116c7565b60008083604051610de091906116ab565b9081526040519081900360200190206006810154909150429060ff6101009091041615610e685760048201546001600160a01b03163314610e635760405162461bcd60e51b815260206004820181905260248201527f416c726561647920636c61696d656420627920616e6f74686572206f776e657260448201526064016104fd565b610f02565b6004820180546001600160a01b0319163317905560058201610e8a8482611748565b5060068201805461ff00191661010017905533600090815260026020908152604082208054600181018255908352912001610ec58582611748565b507fcd244ed2b3e9ff3369bec5733b9f3bb0bb6055a4c23596529b92cb834caee252843383604051610ef99392919061184a565b60405180910390a15b50505050565b606060008080610f23610f1e62015180876118a4565b610fe1565b925092509250610f3283611154565b600a8310610f4f5760405180602001604052806000815250610f6a565b604051806040016040528060018152602001600360fc1b8152505b610f7384611154565b600a8410610f905760405180602001604052806000815250610fab565b604051806040016040528060018152602001600360fc1b8152505b610fb485611154565b604051602001610fc89594939291906118b8565b6040516020818303038152906040529350505050919050565b600080808381610ff48262010bd9611940565b6110019062253d8c611940565b9050600062023ab1611014836004611968565b61101e9190611998565b9050600461102f8262023ab1611968565b61103a906003611940565b6110449190611998565b61104e90836119c6565b9150600062164b09611061846001611940565b61106d90610fa0611968565b6110779190611998565b90506004611087826105b5611968565b6110919190611998565b61109b90846119c6565b6110a690601f611940565b9250600061098f6110b8856050611968565b6110c29190611998565b9050600060506110d48361098f611968565b6110de9190611998565b6110e890866119c6565b90506110f5600b83611998565b945061110285600c611968565b61110d836002611940565b61111791906119c6565b915084836111266031876119c6565b611131906064611968565b61113b9190611940565b6111459190611940565b9a919950975095505050505050565b60608160000361117b5750506040805180820190915260018152600360fc1b602082015290565b8160005b81156111a5578061118f816119ed565b915061119e9050600a836118a4565b915061117f565b60008167ffffffffffffffff8111156111c0576111c0611280565b6040519080825280601f01601f1916602001820160405280156111ea576020820181803683370190505b509050815b851561127757611200600182611a06565b9050600061120f600a886118a4565b61121a90600a611a19565b6112249088611a06565b61122f906030611a30565b905060008160f81b90508084848151811061124c5761124c611a49565b60200101906001600160f81b031916908160001a90535061126e600a896118a4565b975050506111ef565b50949350505050565b634e487b7160e01b600052604160045260246000fd5b600082601f8301126112a757600080fd5b813567ffffffffffffffff808211156112c2576112c2611280565b604051601f8301601f19908116603f011681019082821181831017156112ea576112ea611280565b8160405283815286602085880101111561130357600080fd5b836020870160208301376000602085830101528094505050505092915050565b60006020828403121561133557600080fd5b813567ffffffffffffffff81111561134c57600080fd5b61135884828501611296565b949350505050565b60005b8381101561137b578181015183820152602001611363565b50506000910152565b6000815180845261139c816020860160208601611360565b601f01601f19169290920160200192915050565b60006101208083526113c48184018d611384565b905082810360208401526113d8818c611384565b6001600160a01b038b8116604086015284820360608601529091506113fd828b611384565b908916608085015283810360a085015290506114198188611384565b95151560c0840152505091151560e0830152610100909101529695505050505050565b60208152600061144f6020830184611384565b9392505050565b80356001600160a01b038116811461146d57600080fd5b919050565b60006020828403121561148457600080fd5b61144f82611456565b600060208083016020845280855180835260408601915060408160051b87010192506020870160005b828110156114e457603f198886030184526114d2858351611384565b945092850192908501906001016114b6565b5092979650505050505050565b6000806040838503121561150457600080fd5b61150d83611456565b946020939093013593505050565b6000806000806080858703121561153157600080fd5b843567ffffffffffffffff8082111561154957600080fd5b61155588838901611296565b9550602087013591508082111561156b57600080fd5b61157788838901611296565b9450604087013591508082111561158d57600080fd5b61159988838901611296565b935060608701359150808211156115af57600080fd5b506115bc87828801611296565b91505092959194509250565b600080604083850312156115db57600080fd5b823567ffffffffffffffff8111156115f257600080fd5b6115fe85828601611296565b95602094909401359450505050565b6000806040838503121561162057600080fd5b823567ffffffffffffffff8082111561163857600080fd5b61164486838701611296565b9350602085013591508082111561165a57600080fd5b5061166785828601611296565b9150509250929050565b600181811c9082168061168557607f821691505b6020821081036116a557634e487b7160e01b600052602260045260246000fd5b50919050565b600082516116bd818460208701611360565b9190910192915050565b602080825260169082015275141c9bd91d58dd081b9bdd081c9959da5cdd195c995960521b604082015260600190565b601f821115611743576000816000526020600020601f850160051c810160208610156117205750805b601f850160051c820191505b8181101561173f5782815560010161172c565b5050505b505050565b815167ffffffffffffffff81111561176257611762611280565b611776816117708454611671565b846116f7565b602080601f8311600181146117ab57600084156117935750858301515b600019600386901b1c1916600185901b17855561173f565b600085815260208120601f198616915b828110156117da578886015182559484019460019091019084016117bb565b50858210156117f85787850151600019600388901b60f8161c191681555b5050505050600190811b01905550565b60808152600061181b6080830187611384565b828103602084015261182d8187611384565b6001600160a01b0395909516604084015250506060015292915050565b60608152600061185d6060830186611384565b6001600160a01b039490941660208301525060400152919050565b634e487b7160e01b600052601260045260246000fd5b634e487b7160e01b600052601160045260246000fd5b6000826118b3576118b3611878565b500490565b600086516118ca818460208b01611360565b8083019050602d60f81b80825287516118ea816001850160208c01611360565b8751920191611900816001850160208b01611360565b6001920191820152845161191b816002840160208901611360565b8451910190611931816002840160208801611360565b01600201979650505050505050565b80820182811260008312801582168215821617156119605761196061188e565b505092915050565b80820260008212600160ff1b841416156119845761198461188e565b81810583148215176105305761053061188e565b6000826119a7576119a7611878565b600160ff1b8214600019841416156119c1576119c161188e565b500590565b81810360008312801583831316838312821617156119e6576119e661188e565b5092915050565b6000600182016119ff576119ff61188e565b5060010190565b818103818111156105305761053061188e565b80820281158282048414176105305761053061188e565b60ff81811683821601908111156105305761053061188e565b634e487b7160e01b600052603260045260246000fdfea264697066735822122064212b24748ebcc738d7f5361b626c4127cf1766ff8cc9440f7a865b6c774e4264736f6c63430008170033",
  "linkReferences": {},
  "deployedLinkReferences": {}
}