{
  "_format": "hh-sol-artifact-1",
  "contractName": "ProductRegistry",
  "sourceName": "contracts/ProductRegistry.sol",
  "abi": [
    {
      "anonymous": false,
      "inputs": [
        {
          "indexed": false,
          "internalType": "string",
          "name": "productId",
          "type": "string"
        },
        {
          "indexed": false,
          "internalType": "string",
          "name": "newName",
          "type": "string"
        }
      ],
      "name": "ManufacturerNameUpdated",
      "type": "event"
    },
    {
      "anonymous": false,
      "inputs": [
        {
          "indexed": false,
          "internalType": "string",
          "name": "productId",
          "type": "string"
        },
        {
          "indexed": false,
          "internalType": "address",
          "name": "owner",
          "type": "address"
        },
        {
          "indexed": false,
          "internalType": "uint256",
          "name": "timestamp",
          "type": "uint256"
        }
      ],
      "name": "ProductClaimed",
      "type": "event"
    },
    {
      "anonymous": false,
      "inputs": [
        {
          "indexed": false,
          "internalType": "string",
          "name": "productId",
          "type": "string"
        },
        {
          "indexed": false,
          "internalType": "string",
          "name": "batchNumber",
          "type": "string"
        },
        {
          "indexed": false,
          "internalType": "address",
          "name": "manufacturer",
          "type": "address"
        },
        {
          "indexed": false,
          "internalType": "uint256",
          "name": "timestamp",
          "type": "uint256"
        }
      ],
      "name": "ProductRegistered",
      "type": "event"
    },
    {
      "inputs": [
        {
          "internalType": "string",
          "name": "",
          "type": "string"
        },
        {
          "internalType": "uint256",
          "name": "",
          "type": "uint256"
        }
      ],
      "name": "batchProducts",
      "outputs": [
        {
          "internalType": "string",
          "name": "",
          "type": "string"
        }
      ],
      "stateMutability": "view",
      "type": "function"
    },
    {
      "inputs": [
        {
          "internalType": "string",
          "name": "productId",
          "type": "string"
        },
        {
          "internalType": "string",
          "name": "ownerName",
          "type": "string"
        }
      ],
      "name": "claimProduct",
      "outputs": [],
      "stateMutability": "nonpayable",
      "type": "function"
    },
    {
      "inputs": [
        {
          "internalType": "address",
          "name": "manufacturer",
          "type": "address"
        }
      ],
      "name": "getManufacturerProducts",
      "outputs": [
        {
          "internalType": "string[]",
          "name": "",
          "type": "string[]"
        }
      ],
      "stateMutability": "view",
      "type": "function"
    },
    {
      "inputs": [
        {
          "internalType": "address",
          "name": "owner",
          "type": "address"
        }
      ],
      "name": "getOwnerProducts",
      "outputs": [
        {
          "internalType": "string[]",
          "name": "",
          "type": "string[]"
        }
      ],
      "stateMutability": "view",
      "type": "function"
    },
    {
      "inputs": [
        {
          "internalType": "string",
          "name": "productId",
          "type": "string"
        }
      ],
      "name": "getProductBatch",
      "outputs": [
        {
          "internalType": "string",
          "name": "",
          "type": "string"
        }
      ],
      "stateMutability": "view",
      "type": "function"
    },
    {
      "inputs": [
        {
          "internalType": "string",
          "name": "batchNumber",
          "type": "string"
        }
      ],
      "name": "getProductsByBatch",
      "outputs": [
        {
          "internalType": "string[]",
          "name": "",
          "type": "string[]"
        }
      ],
      "stateMutability": "view",
      "type": "function"
    },
    {
      "inputs": [
        {
          "internalType": "string",
          "name": "productId",
          "type": "string"
        }
      ],
      "name": "getRegistrationDate",
      "outputs": [
        {
          "internalType": "string",
          "name": "",
          "type": "string"
        }
      ],
      "stateMutability": "view",
      "type": "function"
    },
    {
      "inputs": [
        {
          "internalType": "string",
          "name": "productId",
          "type": "string"
        }
      ],
      "name": "getRegistrationTimestamp",
      "outputs": [
        {
          "internalType": "uint256",
          "name": "",
          "type": "uint256"
        }
      ],
      "stateMutability": "view",
      "type": "function"
    },
    {
      "inputs": [
        {
          "internalType": "string",
          "name": "productId",
          "type": "string"
        }
      ],
      "name": "isProductClaimed",
      "outputs": [
        {
          "internalType": "bool",
          "name": "",
          "type": "bool"
        }
      ],
      "stateMutability": "view",
      "type": "function"
    },
    {
      "inputs": [
        {
          "internalType": "string",
          "name": "productId",
          "type": "string"
        }
      ],
      "name": "isProductRegistered",
      "outputs": [
        {
          "internalType": "bool",
          "name": "",
          "type": "bool"
        }
      ],
      "stateMutability": "view",
      "type": "function"
    },
    {
      "inputs": [
        {
          "internalType": "address",
          "name": "",
          "type": "address"
        },
        {
          "internalType": "uint256",
          "name": "",
          "type": "uint256"
        }
      ],
      "name": "manufacturerProducts",
      "outputs": [
        {
          "internalType": "string",
          "name": "",
          "type": "string"
        }
      ],
      "stateMutability": "view",
      "type": "function"
    },
    {
      "inputs": [
        {
          "internalType": "address",
          "name": "",
          "type": "address"
        },
        {
          "internalType": "uint256",
          "name": "",
          "type": "uint256"
        }
      ],
      "name": "ownerProducts",
      "outputs": [
        {
          "internalType": "string",
          "name": "",
          "type": "string"
        }
      ],
      "stateMutability": "view",
      "type": "function"
    },
    {
      "inputs": [
        {
          "internalType": "string",
          "name": "",
          "type": "string"
        }
      ],
      "name": "products",
      "outputs": [
        {
          "internalType": "string",
          "name": "name",
          "type": "string"
        },
        {
          "internalType": "string",
          "name": "batchNumber",
          "type": "string"
        },
        {
          "internalType": "address",
          "name": "manufacturer",
          "type": "address"
        },
        {
          "internalType": "string",
          "name": "manufacturerName",
          "type": "string"
        },
        {
          "internalType": "address",
          "name": "owner",
          "type": "address"
        },
        {
          "internalType": "string",
          "name": "ownerName",
          "type": "string"
        },
        {
          "internalType": "bool",
          "name": "isRegistered",
          "type": "bool"
        },
        {
          "internalType": "bool",
          "name": "isClaimed",
          "type": "bool"
        },
        {
          "internalType": "uint256",
          "name": "registrationTimestamp",
          "type": "uint256"
        }
      ],
      "stateMutability": "view",
      "type": "function"
    },
    {
      "inputs": [
        {
          "internalType": "string",
          "name": "productId",
          "type": "string"
        },
        {
          "internalType": "string",
          "name": "name",
          "type": "string"
        },
        {
          "internalType": "string",
          "name": "batchNumber",
          "type": "string"
        },
        {
          "internalType": "string",
          "name": "manufacturerName",
          "type": "string"
        }
      ],
      "name": "registerProduct",
      "outputs": [],
      "stateMutability": "nonpayable",
      "type": "function"
    }
  ],
  "bytecode": "0x608060405234801561001057600080fd5b50611b38806100206000396000f3fe608060405234801561001057600080fd5b50600436106100ea5760003560e01c80637382e17a1161008c578063a7590f7d11610066578063a7590f7d146101f7578063a78001641461020a578063e6d012a21461021d578063f3e254111461023e57600080fd5b80637382e17a146101bc5780638799d6fc146101cf5780638bce12a3146101e457600080fd5b80631e764d45116100c85780631e764d45146101605780632b85064b146101835780635fe2b9ce1461019657806371014bcd146101a957600080fd5b80630186a423146100ef57806310f6fdfc146101205780631d4f0d5c14610140575b600080fd5b6101026100fd3660046113c6565b610251565b60405161011799989796959493929190611453565b60405180910390f35b61013361012e3660046113c6565b6104e7565b60405161011791906114df565b61015361014e366004611515565b610564565b6040516101179190611530565b61017361016e3660046113c6565b610653565b6040519015158152602001610117565b6101536101913660046113c6565b610680565b6101336101a4366004611594565b61076c565b6101736101b73660046113c6565b610825565b6101536101ca366004611515565b61089a565b6101e26101dd3660046115be565b61097e565b005b6101336101f23660046113c6565b610c88565b61013361020536600461166b565b610d7d565b610133610218366004611594565b610da8565b61023061022b3660046113c6565b610dc4565b604051908152602001610117565b6101e261024c3660046116b0565b610e30565b805160208183018101805160008252928201919093012091528054819061027790611714565b80601f01602080910402602001604051908101604052809291908181526020018280546102a390611714565b80156102f05780601f106102c5576101008083540402835291602001916102f0565b820191906000526020600020905b8154815290600101906020018083116102d357829003601f168201915b50505050509080600101805461030590611714565b80601f016020809104026020016040519081016040528092919081815260200182805461033190611714565b801561037e5780601f106103535761010080835404028352916020019161037e565b820191906000526020600020905b81548152906001019060200180831161036157829003601f168201915b505050600284015460038501805494956001600160a01b039092169491935091506103a890611714565b80601f01602080910402602001604051908101604052809291908181526020018280546103d490611714565b80156104215780601f106103f657610100808354040283529160200191610421565b820191906000526020600020905b81548152906001019060200180831161040457829003601f168201915b505050600484015460058501805494956001600160a01b0390921694919350915061044b90611714565b80601f016020809104026020016040519081016040528092919081815260200182805461047790611714565b80156104c45780601f10610499576101008083540402835291602001916104c4565b820191906000526020600020905b8154815290600101906020018083116104a757829003601f168201915b505050506006830154600790930154919260ff8082169361010090920416915089565b60606000826040516104f9919061174e565b9081526040519081900360200190206006015460ff166105345760405162461bcd60e51b815260040161052b9061176a565b60405180910390fd5b61055e600083604051610547919061174e565b908152602001604051809103902060070154610fab565b92915050565b6001600160a01b0381166000908152600260209081526040808320805482518185028101850190935280835260609492939192909184015b828210156106485783829060005260206000200180546105bb90611714565b80601f01602080910402602001604051908101604052809291908181526020018280546105e790611714565b80156106345780601f1061060957610100808354040283529160200191610634565b820191906000526020600020905b81548152906001019060200180831161061757829003601f168201915b50505050508152602001906001019061059c565b505050509050919050565b60008082604051610664919061174e565b9081526040519081900360200190206006015460ff1692915050565b6060600382604051610692919061174e565b9081526020016040518091039020805480602002602001604051908101604052809291908181526020016000905b828210156106485783829060005260206000200180546106df90611714565b80601f016020809104026020016040519081016040528092919081815260200182805461070b90611714565b80156107585780601f1061072d57610100808354040283529160200191610758565b820191906000526020600020905b81548152906001019060200180831161073b57829003601f168201915b5050505050815260200190600101906106c0565b6001602052816000526040600020818154811061078857600080fd5b906000526020600020016000915091505080546107a490611714565b80601f01602080910402602001604051908101604052809291908181526020018280546107d090611714565b801561081d5780601f106107f25761010080835404028352916020019161081d565b820191906000526020600020905b81548152906001019060200180831161080057829003601f168201915b505050505081565b60008082604051610836919061174e565b9081526040519081900360200190206006015460ff166108685760405162461bcd60e51b815260040161052b9061176a565b600082604051610878919061174e565b9081526040519081900360200190206006015460ff6101009091041692915050565b6001600160a01b0381166000908152600160209081526040808320805482518185028101850190935280835260609492939192909184015b828210156106485783829060005260206000200180546108f190611714565b80601f016020809104026020016040519081016040528092919081815260200182805461091d90611714565b801561096a5780601f1061093f5761010080835404028352916020019161096a565b820191906000526020600020905b81548152906001019060200180831161094d57829003601f168201915b5050505050815260200190600101906108d2565b60008460405161098e919061174e565b9081526040519081900360200190206006015460ff16156109f15760405162461bcd60e51b815260206004820152601a60248201527f50726f6475637420616c72656164792072656769737465726564000000000000604482015260640161052b565b6000815111610a4c5760405162461bcd60e51b815260206004820152602160248201527f4d616e756661637475726572206e616d652063616e6e6f7420626520656d70746044820152607960f81b606482015260840161052b565b6000825111610a9d5760405162461bcd60e51b815260206004820152601c60248201527f4261746368206e756d6265722063616e6e6f7420626520656d70747900000000604482015260640161052b565b604080516101208101825284815260208082018590523382840152606082018490526000608083018190528351918201845280825260a0830191909152600160c083015260e082018190524261010083018190529251610afe90889061174e565b90815260405190819003602001902081518190610b1b90826117eb565b5060208201516001820190610b3090826117eb565b5060408201516002820180546001600160a01b0319166001600160a01b0390921691909117905560608201516003820190610b6b90826117eb565b5060808201516004820180546001600160a01b0319166001600160a01b0390921691909117905560a08201516005820190610ba690826117eb565b5060c082015160068201805460e085015161ffff1990911692151561ff00191692909217610100921515830217905590910151600790910155336000908152600160208181526040832080549283018155835290912001610c0786826117eb565b50600383604051610c18919061174e565b908152604051602091819003820190208054600181018255600091825291902001610c4386826117eb565b507f0c0d491e345bc2978c00d63d2467e57a7b6d771cf759616a786b1d339d75f1b585843384604051610c7994939291906118ab565b60405180910390a15050505050565b6060600082604051610c9a919061174e565b9081526040519081900360200190206006015460ff16610ccc5760405162461bcd60e51b815260040161052b9061176a565b600082604051610cdc919061174e565b90815260200160405180910390206001018054610cf890611714565b80601f0160208091040260200160405190810160405280929190818152602001828054610d2490611714565b8015610d715780601f10610d4657610100808354040283529160200191610d71565b820191906000526020600020905b815481529060010190602001808311610d5457829003601f168201915b50505050509050919050565b8151602081840181018051600382529282019185019190912091905280548290811061078857600080fd5b6002602052816000526040600020818154811061078857600080fd5b60008082604051610dd5919061174e565b9081526040519081900360200190206006015460ff16610e075760405162461bcd60e51b815260040161052b9061176a565b600082604051610e17919061174e565b9081526020016040518091039020600701549050919050565b600082604051610e40919061174e565b9081526040519081900360200190206006015460ff16610e725760405162461bcd60e51b815260040161052b9061176a565b60008083604051610e83919061174e565b9081526040519081900360200190206006810154909150429060ff6101009091041615610f0b5760048201546001600160a01b03163314610f065760405162461bcd60e51b815260206004820181905260248201527f416c726561647920636c61696d656420627920616e6f74686572206f776e6572604482015260640161052b565b610fa5565b6004820180546001600160a01b0319163317905560058201610f2d84826117eb565b5060068201805461ff00191661010017905533600090815260026020908152604082208054600181018255908352912001610f6885826117eb565b507fcd244ed2b3e9ff3369bec5733b9f3bb0bb6055a4c23596529b92cb834caee252843383604051610f9c939291906118ed565b60405180910390a15b50505050565b606060008080610fc6610fc16201518087611947565b611084565b925092509250610fd5836111f7565b600a8310610ff2576040518060200160405280600081525061100d565b604051806040016040528060018152602001600360fc1b8152505b611016846111f7565b600a8410611033576040518060200160405280600081525061104e565b604051806040016040528060018152602001600360fc1b8152505b611057856111f7565b60405160200161106b95949392919061195b565b6040516020818303038152906040529350505050919050565b6000808083816110978262010bd96119e3565b6110a49062253d8c6119e3565b9050600062023ab16110b7836004611a0b565b6110c19190611a3b565b905060046110d28262023ab1611a0b565b6110dd9060036119e3565b6110e79190611a3b565b6110f19083611a69565b9150600062164b096111048460016119e3565b61111090610fa0611a0b565b61111a9190611a3b565b9050600461112a826105b5611a0b565b6111349190611a3b565b61113e9084611a69565b61114990601f6119e3565b9250600061098f61115b856050611a0b565b6111659190611a3b565b9050600060506111778361098f611a0b565b6111819190611a3b565b61118b9086611a69565b9050611198600b83611a3b565b94506111a585600c611a0b565b6111b08360026119e3565b6111ba9190611a69565b915084836111c9603187611a69565b6111d4906064611a0b565b6111de91906119e3565b6111e891906119e3565b9a919950975095505050505050565b60608160000361121e5750506040805180820190915260018152600360fc1b602082015290565b8160005b8115611248578061123281611a90565b91506112419050600a83611947565b9150611222565b60008167ffffffffffffffff81111561126357611263611323565b6040519080825280601f01601f19166020018201604052801561128d576020820181803683370190505b509050815b851561131a576112a3600182611aa9565b905060006112b2600a88611947565b6112bd90600a611abc565b6112c79088611aa9565b6112d2906030611ad3565b905060008160f81b9050808484815181106112ef576112ef611aec565b60200101906001600160f81b031916908160001a905350611311600a89611947565b97505050611292565b50949350505050565b634e487b7160e01b600052604160045260246000fd5b600082601f83011261134a57600080fd5b813567ffffffffffffffff8082111561136557611365611323565b604051601f8301601f19908116603f0116810190828211818310171561138d5761138d611323565b816040528381528660208588010111156113a657600080fd5b836020870160208301376000602085830101528094505050505092915050565b6000602082840312156113d857600080fd5b813567ffffffffffffffff8111156113ef57600080fd5b6113fb84828501611339565b949350505050565b60005b8381101561141e578181015183820152602001611406565b50506000910152565b6000815180845261143f816020860160208601611403565b601f01601f19169290920160200192915050565b60006101208083526114678184018d611427565b9050828103602084015261147b818c611427565b6001600160a01b038b8116604086015284820360608601529091506114a0828b611427565b908916608085015283810360a085015290506114bc8188611427565b95151560c0840152505091151560e0830152610100909101529695505050505050565b6020815260006114f26020830184611427565b9392505050565b80356001600160a01b038116811461151057600080fd5b919050565b60006020828403121561152757600080fd5b6114f2826114f9565b600060208083016020845280855180835260408601915060408160051b87010192506020870160005b8281101561158757603f19888603018452611575858351611427565b94509285019290850190600101611559565b5092979650505050505050565b600080604083850312156115a757600080fd5b6115b0836114f9565b946020939093013593505050565b600080600080608085870312156115d457600080fd5b843567ffffffffffffffff808211156115ec57600080fd5b6115f888838901611339565b9550602087013591508082111561160e57600080fd5b61161a88838901611339565b9450604087013591508082111561163057600080fd5b61163c88838901611339565b9350606087013591508082111561165257600080fd5b5061165f87828801611339565b91505092959194509250565b6000806040838503121561167e57600080fd5b823567ffffffffffffffff81111561169557600080fd5b6116a185828601611339565b95602094909401359450505050565b600080604083850312156116c357600080fd5b823567ffffffffffffffff808211156116db57600080fd5b6116e786838701611339565b935060208501359150808211156116fd57600080fd5b5061170a85828601611339565b9150509250929050565b600181811c9082168061172857607f821691505b60208210810361174857634e487b7160e01b600052602260045260246000fd5b50919050565b60008251611760818460208701611403565b9190910192915050565b602080825260169082015275141c9bd91d58dd081b9bdd081c9959da5cdd195c995960521b604082015260600190565b601f8211156117e6576000816000526020600020601f850160051c810160208610156117c35750805b601f850160051c820191505b818110156117e2578281556001016117cf565b5050505b505050565b815167ffffffffffffffff81111561180557611805611323565b611819816118138454611714565b8461179a565b602080601f83116001811461184e57600084156118365750858301515b600019600386901b1c1916600185901b1785556117e2565b600085815260208120601f198616915b8281101561187d5788860151825594840194600190910190840161185e565b508582101561189b5787850151600019600388901b60f8161c191681555b5050505050600190811b01905550565b6080815260006118be6080830187611427565b82810360208401526118d08187611427565b6001600160a01b0395909516604084015250506060015292915050565b6060815260006119006060830186611427565b6001600160a01b039490941660208301525060400152919050565b634e487b7160e01b600052601260045260246000fd5b634e487b7160e01b600052601160045260246000fd5b6000826119565761195661191b565b500490565b6000865161196d818460208b01611403565b8083019050602d60f81b808252875161198d816001850160208c01611403565b87519201916119a3816001850160208b01611403565b600192019182015284516119be816002840160208901611403565b84519101906119d4816002840160208801611403565b01600201979650505050505050565b8082018281126000831280158216821582161715611a0357611a03611931565b505092915050565b80820260008212600160ff1b84141615611a2757611a27611931565b818105831482151761055e5761055e611931565b600082611a4a57611a4a61191b565b600160ff1b821460001984141615611a6457611a64611931565b500590565b8181036000831280158383131683831282161715611a8957611a89611931565b5092915050565b600060018201611aa257611aa2611931565b5060010190565b8181038181111561055e5761055e611931565b808202811582820484141761055e5761055e611931565b60ff818116838216019081111561055e5761055e611931565b634e487b7160e01b600052603260045260246000fdfea264697066735822122017f916c2223c1c21befcd0b6d2105f5855be20b6e15590a104b5ed9a43a5386d64736f6c63430008170033",
  "linkReferences": {},
  "deployedLinkReferences": {}
}