{
  "_format": "hh-sol-artifact-1",
  "contractName": "ProductRegistry",
  "sourceName": "contracts/ProductRegistry.sol",
  "abi": [
    {
      "anonymous": false,
      "inputs": [
        {
          "indexed": false,
          "internalType": "string",
          "name": "productId",
          "type": "string"
        },
        {
          "indexed": false,
          "internalType": "string",
          "name": "newName",
          "type": "string"
        }
      ],
      "name": "ManufacturerNameUpdated",
      "type": "event"
    },
    {
      "anonymous": false,
      "inputs": [
        {
          "indexed": false,
          "internalType": "string",
          "name": "productId",
          "type": "string"
        },
        {
          "indexed": false,
          "internalType": "address",
          "name": "owner",
          "type": "address"
        },
        {
          "indexed": false,
          "internalType": "uint256",
          "name": "timestamp",
          "type": "uint256"
        }
      ],
      "name": "ProductClaimed",
      "type": "event"
    },
    {
      "anonymous": false,
      "inputs": [
        {
          "indexed": false,
          "internalType": "string",
          "name": "productId",
          "type": "string"
        },
        {
          "indexed": false,
          "internalType": "address",
          "name": "manufacturer",
          "type": "address"
        },
        {
          "indexed": false,
          "internalType": "uint256",
          "name": "timestamp",
          "type": "uint256"
        }
      ],
      "name": "ProductRegistered",
      "type": "event"
    },
    {
      "inputs": [
        {
          "internalType": "string",
          "name": "productId",
          "type": "string"
        },
        {
          "internalType": "string",
          "name": "ownerName",
          "type": "string"
        }
      ],
      "name": "claimProduct",
      "outputs": [],
      "stateMutability": "nonpayable",
      "type": "function"
    },
    {
      "inputs": [
        {
          "internalType": "address",
          "name": "manufacturer",
          "type": "address"
        }
      ],
      "name": "getManufacturerProducts",
      "outputs": [
        {
          "internalType": "string[]",
          "name": "",
          "type": "string[]"
        }
      ],
      "stateMutability": "view",
      "type": "function"
    },
    {
      "inputs": [
        {
          "internalType": "address",
          "name": "owner",
          "type": "address"
        }
      ],
      "name": "getOwnerProducts",
      "outputs": [
        {
          "internalType": "string[]",
          "name": "",
          "type": "string[]"
        }
      ],
      "stateMutability": "view",
      "type": "function"
    },
    {
      "inputs": [
        {
          "internalType": "string",
          "name": "productId",
          "type": "string"
        }
      ],
      "name": "getRegistrationDate",
      "outputs": [
        {
          "internalType": "string",
          "name": "",
          "type": "string"
        }
      ],
      "stateMutability": "view",
      "type": "function"
    },
    {
      "inputs": [
        {
          "internalType": "string",
          "name": "productId",
          "type": "string"
        }
      ],
      "name": "getRegistrationTimestamp",
      "outputs": [
        {
          "internalType": "uint256",
          "name": "",
          "type": "uint256"
        }
      ],
      "stateMutability": "view",
      "type": "function"
    },
    {
      "inputs": [
        {
          "internalType": "address",
          "name": "",
          "type": "address"
        },
        {
          "internalType": "uint256",
          "name": "",
          "type": "uint256"
        }
      ],
      "name": "manufacturerProducts",
      "outputs": [
        {
          "internalType": "string",
          "name": "",
          "type": "string"
        }
      ],
      "stateMutability": "view",
      "type": "function"
    },
    {
      "inputs": [
        {
          "internalType": "address",
          "name": "",
          "type": "address"
        },
        {
          "internalType": "uint256",
          "name": "",
          "type": "uint256"
        }
      ],
      "name": "ownerProducts",
      "outputs": [
        {
          "internalType": "string",
          "name": "",
          "type": "string"
        }
      ],
      "stateMutability": "view",
      "type": "function"
    },
    {
      "inputs": [
        {
          "internalType": "string",
          "name": "",
          "type": "string"
        }
      ],
      "name": "products",
      "outputs": [
        {
          "internalType": "string",
          "name": "name",
          "type": "string"
        },
        {
          "internalType": "address",
          "name": "manufacturer",
          "type": "address"
        },
        {
          "internalType": "string",
          "name": "manufacturerName",
          "type": "string"
        },
        {
          "internalType": "address",
          "name": "owner",
          "type": "address"
        },
        {
          "internalType": "string",
          "name": "ownerName",
          "type": "string"
        },
        {
          "internalType": "bool",
          "name": "isRegistered",
          "type": "bool"
        },
        {
          "internalType": "bool",
          "name": "isClaimed",
          "type": "bool"
        },
        {
          "internalType": "uint256",
          "name": "registrationTimestamp",
          "type": "uint256"
        }
      ],
      "stateMutability": "view",
      "type": "function"
    },
    {
      "inputs": [
        {
          "internalType": "string",
          "name": "productId",
          "type": "string"
        },
        {
          "internalType": "string",
          "name": "name",
          "type": "string"
        }
      ],
      "name": "registerProduct",
      "outputs": [],
      "stateMutability": "nonpayable",
      "type": "function"
    },
    {
      "inputs": [
        {
          "internalType": "string",
          "name": "productId",
          "type": "string"
        },
        {
          "internalType": "string",
          "name": "manufacturerName",
          "type": "string"
        }
      ],
      "name": "setManufacturerName",
      "outputs": [],
      "stateMutability": "nonpayable",
      "type": "function"
    }
  ],
  "bytecode": "0x608060405234801561001057600080fd5b506116b8806100206000396000f3fe608060405234801561001057600080fd5b506004361061009e5760003560e01c80637382e17a116100665780637382e17a1461013b5780638fbd0dcf1461014e578063a780016414610161578063e6d012a214610174578063f3e254111461019557600080fd5b80630186a423146100a357806310f6fdfc146100d35780631d4f0d5c146100f35780632f3a222a146101135780635fe2b9ce14610128575b600080fd5b6100b66100b1366004611062565b6101a8565b6040516100ca9897969594939291906110ef565b60405180910390f35b6100e66100e1366004611062565b6103b0565b6040516100ca9190611165565b61010661010136600461119b565b61042d565b6040516100ca91906111b6565b61012661012136600461121a565b61051c565b005b6100e661013636600461127e565b610695565b61010661014936600461119b565b61074e565b61012661015c36600461121a565b610832565b6100e661016f36600461127e565b610a44565b610187610182366004611062565b610a60565b6040519081526020016100ca565b6101266101a336600461121a565b610acc565b80516020818301810180516000825292820191909301209152805481906101ce906112a8565b80601f01602080910402602001604051908101604052809291908181526020018280546101fa906112a8565b80156102475780601f1061021c57610100808354040283529160200191610247565b820191906000526020600020905b81548152906001019060200180831161022a57829003601f168201915b505050600184015460028501805494956001600160a01b03909216949193509150610271906112a8565b80601f016020809104026020016040519081016040528092919081815260200182805461029d906112a8565b80156102ea5780601f106102bf576101008083540402835291602001916102ea565b820191906000526020600020905b8154815290600101906020018083116102cd57829003601f168201915b505050600384015460048501805494956001600160a01b03909216949193509150610314906112a8565b80601f0160208091040260200160405190810160405280929190818152602001828054610340906112a8565b801561038d5780601f106103625761010080835404028352916020019161038d565b820191906000526020600020905b81548152906001019060200180831161037057829003601f168201915b505050506005830154600690930154919260ff8082169361010090920416915088565b60606000826040516103c291906112e2565b9081526040519081900360200190206005015460ff166103fd5760405162461bcd60e51b81526004016103f4906112fe565b60405180910390fd5b61042760008360405161041091906112e2565b908152602001604051809103902060060154610c47565b92915050565b6001600160a01b0381166000908152600260209081526040808320805482518185028101850190935280835260609492939192909184015b82821015610511578382906000526020600020018054610484906112a8565b80601f01602080910402602001604051908101604052809291908181526020018280546104b0906112a8565b80156104fd5780601f106104d2576101008083540402835291602001916104fd565b820191906000526020600020905b8154815290600101906020018083116104e057829003601f168201915b505050505081526020019060010190610465565b505050509050919050565b60008260405161052c91906112e2565b9081526040519081900360200190206005015460ff1661055e5760405162461bcd60e51b81526004016103f4906112fe565b336001600160a01b031660008360405161057891906112e2565b908152604051908190036020019020600101546001600160a01b0316146105e15760405162461bcd60e51b815260206004820152601e60248201527f4f6e6c79206d616e7566616374757265722063616e20736574206e616d65000060448201526064016103f4565b60008151116106295760405162461bcd60e51b81526020600482015260146024820152734e616d652063616e6e6f7420626520656d70747960601b60448201526064016103f4565b8060008360405161063a91906112e2565b90815260200160405180910390206002019081610657919061137f565b507fe0c052fc93c58f8f8fc0a110db53cae2a6d8fd53f02aab10e298c40becdd201e828260405161068992919061143f565b60405180910390a15050565b600160205281600052604060002081815481106106b157600080fd5b906000526020600020016000915091505080546106cd906112a8565b80601f01602080910402602001604051908101604052809291908181526020018280546106f9906112a8565b80156107465780601f1061071b57610100808354040283529160200191610746565b820191906000526020600020905b81548152906001019060200180831161072957829003601f168201915b505050505081565b6001600160a01b0381166000908152600160209081526040808320805482518185028101850190935280835260609492939192909184015b828210156105115783829060005260206000200180546107a5906112a8565b80601f01602080910402602001604051908101604052809291908181526020018280546107d1906112a8565b801561081e5780601f106107f35761010080835404028352916020019161081e565b820191906000526020600020905b81548152906001019060200180831161080157829003601f168201915b505050505081526020019060010190610786565b60008260405161084291906112e2565b9081526040519081900360200190206005015460ff16156108a55760405162461bcd60e51b815260206004820152601a60248201527f50726f6475637420616c7265616479207265676973746572656400000000000060448201526064016103f4565b6040805161010081018252828152336020808301919091528251808201845260008082528385019190915260608301819052835191820184528082526080830191909152600160a083015260c082018190524260e08301819052925161090c9086906112e2565b90815260405190819003602001902081518190610929908261137f565b5060208201516001820180546001600160a01b0319166001600160a01b0390921691909117905560408201516002820190610964908261137f565b5060608201516003820180546001600160a01b0319166001600160a01b039092169190911790556080820151600482019061099f908261137f565b5060a082015160058201805460c085015115156101000261ff00199315159390931661ffff199091161791909117905560e090910151600690910155336000908152600160208181526040832080549283018155835290912001610a03848261137f565b507f69a364a36de428def83b9136062f8e6214b44410a34f51f779f06dc745de8fca833383604051610a379392919061146d565b60405180910390a1505050565b600260205281600052604060002081815481106106b157600080fd5b60008082604051610a7191906112e2565b9081526040519081900360200190206005015460ff16610aa35760405162461bcd60e51b81526004016103f4906112fe565b600082604051610ab391906112e2565b9081526020016040518091039020600601549050919050565b600082604051610adc91906112e2565b9081526040519081900360200190206005015460ff16610b0e5760405162461bcd60e51b81526004016103f4906112fe565b60008083604051610b1f91906112e2565b9081526040519081900360200190206005810154909150429060ff6101009091041615610ba75760038201546001600160a01b03163314610ba25760405162461bcd60e51b815260206004820181905260248201527f416c726561647920636c61696d656420627920616e6f74686572206f776e657260448201526064016103f4565b610c41565b6003820180546001600160a01b0319163317905560048201610bc9848261137f565b5060058201805461ff00191661010017905533600090815260026020908152604082208054600181018255908352912001610c04858261137f565b507fcd244ed2b3e9ff3369bec5733b9f3bb0bb6055a4c23596529b92cb834caee252843383604051610c389392919061146d565b60405180910390a15b50505050565b606060008080610c62610c5d62015180876114c7565b610d20565b925092509250610c7183610e93565b600a8310610c8e5760405180602001604052806000815250610ca9565b604051806040016040528060018152602001600360fc1b8152505b610cb284610e93565b600a8410610ccf5760405180602001604052806000815250610cea565b604051806040016040528060018152602001600360fc1b8152505b610cf385610e93565b604051602001610d079594939291906114db565b6040516020818303038152906040529350505050919050565b600080808381610d338262010bd9611563565b610d409062253d8c611563565b9050600062023ab1610d5383600461158b565b610d5d91906115bb565b90506004610d6e8262023ab161158b565b610d79906003611563565b610d8391906115bb565b610d8d90836115e9565b9150600062164b09610da0846001611563565b610dac90610fa061158b565b610db691906115bb565b90506004610dc6826105b561158b565b610dd091906115bb565b610dda90846115e9565b610de590601f611563565b9250600061098f610df785605061158b565b610e0191906115bb565b905060006050610e138361098f61158b565b610e1d91906115bb565b610e2790866115e9565b9050610e34600b836115bb565b9450610e4185600c61158b565b610e4c836002611563565b610e5691906115e9565b91508483610e656031876115e9565b610e7090606461158b565b610e7a9190611563565b610e849190611563565b9a919950975095505050505050565b606081600003610eba5750506040805180820190915260018152600360fc1b602082015290565b8160005b8115610ee45780610ece81611610565b9150610edd9050600a836114c7565b9150610ebe565b60008167ffffffffffffffff811115610eff57610eff610fbf565b6040519080825280601f01601f191660200182016040528015610f29576020820181803683370190505b509050815b8515610fb657610f3f600182611629565b90506000610f4e600a886114c7565b610f5990600a61163c565b610f639088611629565b610f6e906030611653565b905060008160f81b905080848481518110610f8b57610f8b61166c565b60200101906001600160f81b031916908160001a905350610fad600a896114c7565b97505050610f2e565b50949350505050565b634e487b7160e01b600052604160045260246000fd5b600082601f830112610fe657600080fd5b813567ffffffffffffffff8082111561100157611001610fbf565b604051601f8301601f19908116603f0116810190828211818310171561102957611029610fbf565b8160405283815286602085880101111561104257600080fd5b836020870160208301376000602085830101528094505050505092915050565b60006020828403121561107457600080fd5b813567ffffffffffffffff81111561108b57600080fd5b61109784828501610fd5565b949350505050565b60005b838110156110ba5781810151838201526020016110a2565b50506000910152565b600081518084526110db81602086016020860161109f565b601f01601f19169290920160200192915050565b60006101008083526111038184018c6110c3565b6001600160a01b038b811660208601528482036040860152909150611128828b6110c3565b90891660608501528381036080850152905061114481886110c3565b95151560a0840152505091151560c083015260e09091015295945050505050565b60208152600061117860208301846110c3565b9392505050565b80356001600160a01b038116811461119657600080fd5b919050565b6000602082840312156111ad57600080fd5b6111788261117f565b600060208083016020845280855180835260408601915060408160051b87010192506020870160005b8281101561120d57603f198886030184526111fb8583516110c3565b945092850192908501906001016111df565b5092979650505050505050565b6000806040838503121561122d57600080fd5b823567ffffffffffffffff8082111561124557600080fd5b61125186838701610fd5565b9350602085013591508082111561126757600080fd5b5061127485828601610fd5565b9150509250929050565b6000806040838503121561129157600080fd5b61129a8361117f565b946020939093013593505050565b600181811c908216806112bc57607f821691505b6020821081036112dc57634e487b7160e01b600052602260045260246000fd5b50919050565b600082516112f481846020870161109f565b9190910192915050565b602080825260169082015275141c9bd91d58dd081b9bdd081c9959da5cdd195c995960521b604082015260600190565b601f82111561137a576000816000526020600020601f850160051c810160208610156113575750805b601f850160051c820191505b8181101561137657828155600101611363565b5050505b505050565b815167ffffffffffffffff81111561139957611399610fbf565b6113ad816113a784546112a8565b8461132e565b602080601f8311600181146113e257600084156113ca5750858301515b600019600386901b1c1916600185901b178555611376565b600085815260208120601f198616915b82811015611411578886015182559484019460019091019084016113f2565b508582101561142f5787850151600019600388901b60f8161c191681555b5050505050600190811b01905550565b60408152600061145260408301856110c3565b828103602084015261146481856110c3565b95945050505050565b60608152600061148060608301866110c3565b6001600160a01b039490941660208301525060400152919050565b634e487b7160e01b600052601260045260246000fd5b634e487b7160e01b600052601160045260246000fd5b6000826114d6576114d661149b565b500490565b600086516114ed818460208b0161109f565b8083019050602d60f81b808252875161150d816001850160208c0161109f565b8751920191611523816001850160208b0161109f565b6001920191820152845161153e81600284016020890161109f565b845191019061155481600284016020880161109f565b01600201979650505050505050565b8082018281126000831280158216821582161715611583576115836114b1565b505092915050565b80820260008212600160ff1b841416156115a7576115a76114b1565b8181058314821517610427576104276114b1565b6000826115ca576115ca61149b565b600160ff1b8214600019841416156115e4576115e46114b1565b500590565b8181036000831280158383131683831282161715611609576116096114b1565b5092915050565b600060018201611622576116226114b1565b5060010190565b81810381811115610427576104276114b1565b8082028115828204841417610427576104276114b1565b60ff8181168382160190811115610427576104276114b1565b634e487b7160e01b600052603260045260246000fdfea2646970667358221220914fa11ed7fe913e1196397279dc4e356d667c026de6bbe7a135f2ea48b4d11d64736f6c63430008170033",
  "linkReferences": {},
  "deployedLinkReferences": {}
}